:020000040800F2
:10000000B80900202D020008FD560008EB25000865
:10001000F956000851080008615C00080000000063
:100020000000000000000000000000002957000848
:100030005508000800000000FF560008815700081E
:10004000470200084702000847020008470200086C
:10005000470200084702000847020008470200085C
:10006000470200084702000847020008470200084C
:10007000470200084702000847020008470200083C
:10008000470200084702000847020008470200082C
:10009000470200084702000847020008470200081C
:1000A000470200084702000847020008470200080C
:1000B0004702000847020008E1570008470200080D
:1000C00047020008470200084702000847020008EC
:1000D00047020008215C00084702000847020008A8
:1000E00047020008470200084702000847020008CC
:1000F00047020008470200084702000847020008BC
:1001000047020008470200084702000847020008AB
:10011000470200084702000847020008470200089B
:10012000470200084702000847020008470200088B
:1001300000F002F800F06BF80AA090E8000C82448E
:100140008344AAF10107DA4501D100F060F8AFF26B
:10015000090EBAE80F0013F0010F18BFFB1A43F0A5
:1001600001031847A8C10000C8C100000A444FF0AD
:10017000000C10F8013B13F0070408BF10F8014B06
:100180001D1108BF10F8015B641E05D010F8016B4B
:10019000641E01F8016BF9D113F0080F1EBF10F8AF
:1001A000014BAD1C0C1B09D16D1E58BF01F801CBD2
:1001B000FAD505E014F8016B01F8016B6D1EF9D555
:1001C0009142D6D37047000000230024002500266A
:1001D000103A28BF78C1FBD8520728BF30C148BFAA
:1001E0000B607047642900F09F80752900F09C80A7
:1001F000782900F0D580632900F02982732900F066
:100200002E82002070471FB51FBD10B510BD00F035
:1002100059FA1146FFF7F7FF05F092FD00F077FA63
:1002200003B4FFF7F2FF03BC05F03FFD0948804728
:1002300009480047FEE7FEE7FEE7FEE7FEE7FEE7C8
:10024000FEE7FEE7FEE7FEE704480549054A064BE0
:10025000704700008957000831010008B8030020EA
:10026000B8090020B8050020B8050020704700003C
:100270000FB4044910B503AA029800F0F5F910BCB8
:100280005DF814FB1400002070B504468569006811
:10029000C10601D5302600E02026C00707D070BD7A
:1002A000D4E9012130469047206A401C20626D1E2F
:1002B000F6D570BD70B5044685690078C00707D1D2
:1002C00070BDD4E9012120209047206A401C2062A3
:1002D0006D1EF6D570BD70B50C460546012A05D0D9
:1002E0002878800600D5EA69002302E0012305E0B2
:1002F0005B1C934202D2E05C0028F9D1A869E618A1
:10030000C01AA861286A184428622846FFF7BCFF73
:1003100004E0D5E9012114F8010B9047B442F8D369
:100320002846FFF7C7FF70BD2DE9F04106460024BF
:1003300010687529314616A510D0AFF3008000284B
:1003400002DA404213A507E031688A0701D512A5F9
:1003500002E0490704D511A5012401E0AFF30080B4
:1003600000210A2206F1240709E0B0FBF2FCB0FBF1
:10037000F2F302FB1C00303078541846491C002868
:10038000F3D123462A463046BDE8F04100F0FCB8E0
:10039000000000002D0000002B00000020000000E5
:1003A00070B504460D4621461068AFF300802188E1
:1003B000090502D50F4A7A4402E00E4A7A440E3209
:1003C000002104F1240305E000F00F060009965D0A
:1003D0005E54491C0028F7D120780023000704D57B
:1003E000702D02D009B1022311322046BDE87040C1
:1003F00000F0CAB884BE00002DE9F05F89460446CB
:100400004FF0000ADFF874B1FB44C0F820A020468A
:10041000E1688847002874D0252806D0D4E9012156
:100420009047206A401C2062F1E700265F46204684
:10043000E16888472028054607DB312D05D2781969
:1004400010F8200C08B10643F1E7B00701D526F0FB
:100450000406C4F81CA00027C4F818A02A2D09D04F
:10046000284605F01BFC38B304EB8708303DC8F87C
:10047000185019E059F8041B204604EB87029161DB
:10048000E1688847012F054618D1E069002820DA85
:1004900026F020061DE0D8F8180000EB800005EBE0
:1004A00040003038C8F818002046E1688847054603
:1004B00005F0F4FB0028EED1012F0AD02E2D08D133
:1004C0002046E16888477F1C0546022F46F020063B
:1004D000C4DBA069002803DA404246F00106A061AF
:1004E000F00701D026F010066C2D0BD0682D09D036
:1004F0004C2D39D06A2D35D0742D35D07A2D33D08E
:1005000016E038E0E1682F4620468847B8420546A5
:1005100009D16C2F26D04FF48060E1680643204655
:100520008847054604E06C2F1AD04FF480700643CC
:100530000DB3A5F14100192802D8203546F4006614
:100540004A462946204626604E46FFF74BFE80B1BC
:1005500001280BD0F61D26F0070000F1080956E728
:100560004020E4E78020D8E70020D6E706F1040920
:100570004DE7284652E7206ABDE8F09F5ABE0000CA
:1005800070477047704770472DE9F0470D46994610
:100590009246044600F124080168880604D5E06903
:1005A00021F01001216000E00120A84201DD471B7D
:1005B00000E00027A1697A1902EB0900081AA0617E
:1005C0002078C00602D42046FFF75EFE002608E031
:1005D000D4E901211AF806009047206A401C761CD5
:1005E00020624E45F4DB2078C0060AD52046FFF78E
:1005F0004BFE06E0D4E9012130209047206A401CE0
:100600002062381EA7F10107F4DC07E0D4E90121DC
:1006100018F805009047206A401C2062281EA5F1AA
:100620000105F3DC2046FFF745FE2078000602D5E1
:100630000220BDE8F0870120FBE710B5436913B144
:10064000AFF3008001E0FFF746FE012010BD1278F5
:1006500000F124010A7000224A700122EDE71168BE
:100660004FF0FF32E9E70000074B70B50D467B44C1
:1006700000F011F80446284600F020F810B14FF0C1
:10068000FF3070BD204670BDB356000001694A1CA2
:1006900002610878704700B58FB0CDE901310021C3
:1006A000059105497944CDE9031011466846FFF7E5
:1006B000A3FE0FB000BD0000E5FFFFFF007B00F0D0
:1006C00080007047754600F02BF8AE46050069467D
:1006D000534620F00700854618B020B5FFF7B4FD5B
:1006E000BDE820404FF000064FF000074FF0000833
:1006F0004FF0000B21F00701AC46ACE8C009ACE8B4
:10070000C009ACE8C009ACE8C0098D46704710B517
:100710000446AFF300802046BDE81040FFF780BDDF
:10072000004870475803002070B504460025206833
:10073000806800F00100F0B12068806820F00100BE
:100740002168886000F060FF05460EE000F05CFF65
:10075000401B022809D9A06A40F01000A062E06A9C
:1007600040F00100E062012070BD2068806800F068
:1007700001000028EAD10020F6E7000038B5044661
:100780000025002000902068806800F0010080BBF8
:100790002068806840F00100216888601648006881
:1007A0001649B0FBF1F0009002E00098401E009066
:1007B00000980028F9D100F027FF054613E000F06B
:1007C00023FF401B02280ED9A06A40F01000A0624F
:1007D000E06A40F00100E06200BF002084F82400DD
:1007E00000BF012038BD2068806800F001000028AB
:1007F000E5D00020F6E700000000002040420F0096
:1008000000B585B000BF1048806940F008000E496F
:1008100088610846806900F00800009000BF00BFB2
:10082000881501900120029003900320049001A9F3
:10083000064800F03BFD00224FF48071034800F0B1
:10084000DDFE05B000BD000000100240000C0140BC
:1008500000BFFEE77047000070B50446B3F5804F57
:1008600013D1D1E9000540EA05108D6840EA052062
:100870008D6928438D8940EA054054F82250064E80
:100880003540284344F8220003E06FF0704044F8FC
:100890002200002070BD00000000F0CF30B50246FD
:1008A000086852F8200020F001000C6842F824008B
:1008B0008868082801D1402300E0002348681843D5
:1008C0008C682043CC6820430C6920434C6920434A
:1008D0008C692043CC6920430C6A20434C6A204336
:1008E0008C6A2043CC6A20430C6B20434C6B204322
:1008F0000C6852F82440044D2C4020430C6842F808
:100900002400002030BD00008000F0FF10B5034639
:10091000D1E9000440EA04108C6840EA04208C8984
:1009200040EA0444088A401E44EA0054087D801EC0
:1009300044EA00608C692043541C53F8244004F0BE
:1009400040442043541C43F82400002010BD000004
:100950003EB50446009401200190072002906946AC
:10096000074800F0EDF8064800F034FB0A2104487F
:1009700000F078FA024800F093F980B23EBD000022
:10098000A00200202DE9F04107460C460025002674
:1009900008E03846FFF7DCFF0544052005F092F932
:1009A000701CC6B2A642F4DBB5FBF4F080B2BDE821
:1009B000F08100002DE9F05F14211020FFF7E2FF25
:1009C0008346584607F036F8804607F007F8064693
:1009D0004FF06632124B06F019FE04460D462246D1
:1009E0002B461048104906F00FFF80460F4A104B67
:1009F00006F044FC064600220E4B06F097FB044628
:100A00000D4600220C4B2046294606F0FFFD064607
:100A100006F08CFD0FFA80FA5046BDE8F09F00000A
:100A200066664A3FE17A14AE47E1F63F22FDF6756D
:100A3000E09C713F0000394000005940F8B5044681
:100A400000260020009000BF94F82400012801D166
:100A50000220F8BD012084F8240000BF2046FFF7E3
:100A600063FE0646002E62D1A06A20F4885040F052
:100A70000200A062022000F077FE30490968B1FB55
:100A8000F0F04000009002E00098401E00900098B6
:100A90000028F9D12046FFF771FE2068806840F0F9
:100AA00008002168886000F0AFFD054611E000F005
:100AB000ABFD401B0A280CD9A06A20F0020040F0D0
:100AC0001000A06200BF002084F8240000BF0120B5
:100AD000BFE72068806800F008000028E7D12068A0
:100AE000806840F004002168886000F08DFD0546B4
:100AF00011E000F089FD401B0A280CD9A06A20F003
:100B0000020040F01000A06200BF002084F8240022
:100B100000BF01209DE72068806800F004000028E5
:100B2000E7D1A06A20F0020040F00100A06200BFFF
:100B3000002084F8240000BF30468AE7000000202F
:100B400038B5024600230020009000BF92F8240030
:100B5000012801D1022038BD012082F8240000BF05
:100B60004868072812D21068406B0C79641E04EBA9
:100B700084051F24AC40A0430D796D1E05EB85054F
:100B80000C68AC4020431468606327E048680D2877
:100B900012D21068006B0C79E41F04EB84051F244B
:100BA000AC40A0430D79ED1F05EB85050C68AC400A
:100BB00020431468206311E01068C06A0C790D3C72
:100BC00004EB84051F24AC40A0430D790D3D05EBDB
:100BD00085050C68AC4020431468E06208680A2868
:100BE00012D31068C0680C780A3C04EB4405072453
:100BF000AC40A0430D780A3D05EB45058C68AC4040
:100C000020431468E0600FE0106800690C7804EB82
:100C100044050724AC40A0430D7805EB45058C68DE
:100C2000AC402043146820610868102802D008688E
:100C3000112827D1174C1068A0421ED11068806877
:100C400000F40000F0B91068806840F400001468F7
:100C5000A0600868102815D10F4800680F4CB0FB41
:100C6000F4F000EB80004000009002E00098401E8D
:100C7000009000980028F9D104E0906A40F020002C
:100C80009062012300BF002082F8240000BF1846B4
:100C900061E70000002401400000002040420F00F6
:100CA00001460868C06C70472DE9F04104460027F2
:100CB00000250026A84614B90120BDE8F081A068EF
:100CC00010B1207D00B100BFA06A30B90020E06201
:100CD00084F82400204600F097F82046FFF724FD12
:100CE0000746A06A00F01000002873D1002F7ED1C3
:100CF000A06A20F4885040F00200A0623F4AD4E984
:100D00000001904208D1E069B0F5402F02D14FF4C4
:100D1000002002E0E06900E0E0690143207B41EA55
:100D200040000643A068B0F5807F02D0A06801288B
:100D300002D14FF4807000E000200543207D01289F
:100D400011D1207B38B9A069401E4FF4006141EAFF
:100D50004030054307E0A06A40F02000A062E06A4E
:100D600040F00100E0622068406820F469402843B8
:100D70002168486020688068214908403043216824
:100D80008860A068B0F5807F02D0A068012802D1F9
:100D90004FF4807000E00020B0F5807F03D1208AFE
:100DA000401E4FEA00582068C06A20F4700040EAF4
:100DB00008002168C8622068806812490840B04273
:100DC00009D10020E062A06A20F0020040F001009A
:100DD000A06211E00BE0A06A20F0020040F01000D9
:100DE000A062E06A40F00100E062012704E0A06A2E
:100DF00040F01000A062012738465EE7003C014049
:100E0000FDF7E1FFFE0E1FFF10B586B0044600BFE0
:100E10001248806940F40070104988610846806972
:100E200000F40070019000BF00BF00BF0846806959
:100E300040F0040088610846806900F004000190D9
:100E400000BF00BF02200290032003900020049006
:100E500002A9034800F02AFA06B010BD00100240B3
:100E600000080140F8B504460D4600260020009019
:100E7000002700F0C9FB06462068806800F48070F7
:100E800050B1A06A40F02000A06200BF002084F8AA
:100E9000240000BF0120F8BD2068406800F4807085
:100EA000F8B92068C06A00F47000D0B912E0681C7C
:100EB00080B125B100F0A8FB801BA8420AD9A06A26
:100EC00040F00400A06200BF002084F8240000BFAE
:100ED0000320E0E72068006800F002000028E6D068
:100EE00050E0022000F040FC36490968B1FBF0F008
:100EF00021680969344A114091B92168C968921181
:100F0000114069B921680969304A114031B9216835
:100F1000C9689211114009B9142117E0292115E07F
:100F200021680969294A114021B92168C9689211CB
:100F3000114041B121680969254A114029B9216848
:100F4000C968114009B9542100E0FC2100FB01F7F8
:100F500015E0681C80B125B100F056FB801BA8424B
:100F60000AD9A06A40F00400A06200BF002084F803
:100F7000240000BF03208EE70098401C00900098DA
:100F8000B842E6D36FF0120021680860A06A40F40E
:100F90000070A0622068806800F46020B0F5602FC7
:100FA0000DD1207B58B9A06A20F48070A062A06A9D
:100FB00000F4805018B9A06A40F00100A06200203F
:100FC00069E700000000002024499224922449127D
:100FD0004992240070B50446002500BF94F824000F
:100FE000012801D1022070BD012084F8240000BF37
:100FF0002046FFF7C3FB0546002D77D1A06A40F2DB
:101000000121884340F48070A0623C4920688842F6
:1010100008D13B48006800F4702008B9012002E0C4
:10102000002000E0012078B1A06A20F48010A062C6
:101030002068406800F4806000B3A06A20F400508B
:1010400040F48050A06219E0A06A40F48010A062D1
:101050002B49091F2068884203D02849206888420C
:1010600004D12748006800F4806000E0002028B127
:10107000A06A20F4005040F48050A062A06A00F4FE
:10108000805020B1E06A20F00600E06201E000201C
:10109000E06200BF002084F8240000BFC01E216869
:1010A00008602068806800F46020B0F5602F16D1D9
:1010B00012492068884208D11148006800F4702065
:1010C00008B9012002E0002000E0012038B12068CA
:1010D000806840F4A000216888600CE006E0206889
:1010E000806840F480102168886004E000BF002020
:1010F00084F8240000BF284675E70000002801405E
:101100000424014070B50446002594F8210002280B
:1011100003D00420A0630125C1E02068006820F00E
:101120000E00216808602068006820F00100216836
:1011300008605C492068884252D95A497839206849
:10114000884201D1012047E056496439206888422D
:1011500001D1102040E0534950392068884201D124
:10116000801539E04F493C392068884201D180140C
:1011700032E04C4928392068884202D14FF480304F
:101180002AE0484914392068884202D14FF480107F
:1011900022E044492068884201D140041CE04249D1
:1011A0002068884201D1012016E03F4914312068AF
:1011B000884201D110200FE03B4928312068884245
:1011C00001D1801508E038493C312068884201D1BE
:1011D000801401E04FF480303349091F086051E06A
:1011E000304978392068884201D1012047E02D49F3
:1011F00064392068884201D1102040E029495039E3
:101200002068884201D1801539E026493C392068A0
:10121000884201D1801432E022492839206888426E
:1012200002D14FF480302AE01E49143920688842E8
:1012300002D14FF4801022E01A492068884201D17F
:1012400040041CE018492068884201D1012016E0C2
:10125000154914312068884201D110200FE012494D
:1012600028312068884201D1801508E00E493C31C0
:101270002068884201D1801401E04FF48030094990
:1012800080394860012084F8210000BF002084F8E4
:10129000200000BF606B10B12046616B8847284674
:1012A00070BD000080000240080402402DE9F847AC
:1012B000024600239C467BE14FF0010808FA03F444
:1012C000D1F8008008EA0400A0427DD1DFF8F4A242
:1012D000D1F80480A8EB0A09D0453AD014DCB8F163
:1012E000030F50D009DCB8F1000F31D0B8F1010F75
:1012F0001CD0B8F1020F49D120E0B8F1110F18D07D
:10130000B8F1120F42D11EE0B9F5881F25D006DCD6
:10131000B9F5803F20D0B9F5801F37D11AE0B9F573
:10132000001F18D0B9F5041F30D117E0D1F80CC058
:101330002DE0D1F80C8008F1040C28E0D1F80C80E5
:1013400008F1080C23E0D1F80C8008F10C0C1EE029
:1013500000BF00BF00BF00BF00BF00BFD1F80880C2
:10136000B8F1000F02D14FF0040C0BE0D1F8088067
:10137000B8F1010F03D14FF0080C146102E04FF0F7
:10138000080C546103E04FF0000C00E000BF00BF08
:10139000FF2801D8904601E002F104084646FF28E4
:1013A00002D84FEA830803E0A3F108084FEA88084F
:1013B0004746D6F800804FF00F0909FA07F928EAE6
:1013C00009080CFA07F900E07AE048EA0908C6F8CB
:1013D0000080D1F8048008F08058B8F1805F6FD1A8
:1013E00000BFDFF8E481D8F8188048F00108DFF882
:1013F000D891C9F81880C846D8F8188008F00108B4
:10140000CDF8008000BF00BF4FEAB9384FEA93091A
:1014100058F829504FEA83784FEA18794FF00F08AF
:1014200008FA09F825EA0805DFF8A081424502D14B
:101430004FF0000824E0DFF89881424502D14FF0D8
:1014400001081DE0DFF88C81424502D14FF002080F
:1014500016E0DFF88481424502D14FF003080FE027
:10146000DFF87881424502D14FF0040808E0DFF848
:101470007081424502D14FF0050801E04FF00608A7
:101480004FEA83794FEA197908FA09F848EA05051D
:10149000DFF850814FEA930948F82950D1F80480C9
:1014A00008F48038B8F5803F0BD1DFF83C81D8F8DC
:1014B000008048EA0008DFF83091C9F800800AE0AF
:1014C00075E0DFF82481D8F8008028EA0008DFF80A
:1014D0001891C9F80080D1F8048008F40038B8F5F4
:1014E000003F0ED1DFF8008108F10408D8F8008031
:1014F00048EA0008DFF8F09009F10409C9F8008013
:101500000DE0DFF8E48008F10408D8F8008028EA4C
:101510000008DFF8D49009F10409C9F80080D1F877
:10152000048008F48018B8F5801F0ED1DFF8B88069
:1015300008F10808D8F8008048EA0008DFF8A89009
:1015400009F10809C9F800800DE0DFF89C8008F176
:101550000808D8F8008028EA0008DFF88C9009F124
:101560000809C9F80080D1F8048008F40018B8F51B
:10157000001F0ED1DFF8708008F10C08D8F8008049
:1015800048EA0008DFF8609009F10C09C9F800800A
:101590000DE0DFF8548008F10C08D8F8008028EA44
:1015A0000008DFF8449009F10C09C9F800805B1CC1
:1015B000D1F8008028FA03F8B8F1000F7FF47CAE70
:1015C000BDE8F8870000111000100240000801403B
:1015D000000C0140001001400014014000180140BF
:1015E000001C0140080001400004014002469368CD
:1015F0000B400BB1012000E0002070470AB10161EF
:1016000001E00B0403617047014800687047000067
:101610000400002003480068034909780844014990
:1016200008607047040000200C00002010B5084836
:10163000006840F0100006490860052000F080F8BE
:101640000F2000F007F800F02BF8002010BD00007C
:101650000020024070B504460E4800784FF47A71BD
:10166000B1FBF0F00C490968B1FBF0F5284600F039
:10167000B5FD08B1012070BD102C07D20022214613
:10168000501E00F01EF80548046001E00120F2E75A
:101690000020F0E70C0000200000002008000020DF
:1016A000704701460846002809DB00F01F030122AD
:1016B0009A4043099B0003F1E023C3F8002100BFD7
:1016C00070472DE9F05F80460D461646002704F06E
:1016D000C9FA074639462A46334601F00700C0F1E9
:1016E000070ABAF1040F02D94FF0040A01E0C0F171
:1016F000070AD14600F1040ABAF1070F02D24FF0EF
:10170000000A01E0A0F1030AD4464FF0010A0AFAE8
:1017100009FAAAF1010A0AEA020A0AFA0CFA4FF0D7
:10172000010B0BFA0CFBABF1010B0BEA030B4AEAC2
:101730000B042146404604F09DFABDE8F09F0000EE
:1017400000BF00F00702064B19684FF6FF0319406F
:10175000044B0B4343EA0221014B196000BF704761
:101760000CED00E00000FA052DE9F04385B00646D7
:1017700042A30FCB01AC0FC444A0006800904FF00F
:101780000008002500270024A146042E36D004DCE2
:10179000012E3BD0022E6BD15FE0082E32D0102EEE
:1017A00066D13B484468006800F0807000B301A82F
:1017B000C4F38341475C04F4803070B1344840681E
:1017C000C0F340401DF8008004F4803040B131483F
:1017D000B0FBF8F000FB07F502E02F4807FB00F52F
:1017E0002B48406800F48000B0F5800F01D1A94675
:1017F00003E068000321B0FBF1F93AE000F0D0F912
:10180000814636E000F0CCF9814632E02048046A97
:1018100004F44070B0F5807F05D104F0020010B1EF
:101820004FF4004918E004F44070B0F5007F07D190
:101830001748406A00F0020010B149F640490BE039
:1018400004F44070B0F5407F06D11148006800F400
:10185000003008B14FF224490BE000F091F90C4937
:101860004968C1F38131491C4900B0FBF1F900E03E
:1018700000BF00BF484605B0BDE8F0830203040581
:10188000060708090A0B0C0D0E0F101001020000CC
:101890000010024000127A0000093D00F8B504462D
:1018A000002700260025207800F00100002869D0DC
:1018B0004248C06900F0805070B900BF3F48C0691D
:1018C00040F080503D49C8610846C06900F0805032
:1018D000009000BF00BF01273948006800F4807005
:1018E000B0B93748006840F4807035490860FFF7A8
:1018F0008BFE064606E0FFF787FE801B642801D9B1
:101900000320F8BD2E48006800F480700028F2D053
:101910002A48006A00F440752DB3A08800F4407096
:10192000A84220D02548006A20F4407501202549AE
:101930000860002008602148056205F0010090B1B0
:10194000FFF762FE064608E0FFF75EFE801B41F2ED
:101950008831884201D90320D3E71848006A00F093
:1019600002000028F0D01548006A20F44070616839
:10197000084312490862012F04D10846C06920F0CB
:101980008050C861207800F00200022807D10B487F
:10199000406820F44040A168084308494860207826
:1019A00000F01000102807D10448406820F480009F
:1019B00061690843014948600020A2E70010024025
:1019C000007000404004424270B504460D460CB918
:1019D000012070BD5A48006800F00700A8420ED2EE
:1019E0005748006820F0070028435549086008461A
:1019F000006800F00700A84201D00120E9E7207844
:101A000000F0020002281DD1207800F00400042814
:101A100005D14C48406840F4E0604A49486020786D
:101A200000F00800082805D14648406840F460509E
:101A3000444948604348406820F0F000A1680843EA
:101A400040494860207800F0010078B360680128C0
:101A500006D13C48006800F4003090B90120B8E796
:101A60006068022806D13748006800F0007040B96D
:101A70000120AEE73348006800F0020008B90120F9
:101A8000A7E73048406820F00300616808432D490B
:101A90004860FFF7B9FD064609E0FFF7B5FD801B7A
:101AA00041F28831884202D9032092E707E02548B5
:101AB000406800F00C006168B0EB810FEDD1204868
:101AC000006800F00700A8420ED91D48006820F009
:101AD000070028431A4908600846006800F007001C
:101AE000A84201D0012074E7207800F00400042807
:101AF00007D11448406820F4E060E16808431149C8
:101B00004860207800F00800082808D10D48406897
:101B100020F46050216940EAC1000A49486000F0A1
:101B20003FF808494968C1F30311074A515CC840AE
:101B30000649086006480068FFF78CFD002048E76A
:101B40000020024000100240E67A00080000002059
:101B500008000020014800687047000000000020D5
:101B600000B5FFF7F7FF04494968C1F30221034AB2
:101B7000515CC84000BD000000100240F67A000829
:101B800000B5FFF7E7FF04494968C1F3C221034AE2
:101B9000515CC84000BD000000100240F67A000809
:101BA000F0B585B00FF26C0C9CE8E01001A8A0E83D
:101BB000E0101CA52D6800950021002200230024C0
:101BC0000020194D696801F00C05F5B1042D02D013
:101BD000082D19D101E0154819E001ADC1F3834684
:101BE000AC5D01F4803555B10F4D6D68C5F34045CE
:101BF0001DF805200D4D6543B5FBF2F302E00C4DD9
:101C000004FB05F3184602E000BF084800BF00BF10
:101C100005B0F0BD02030405060708090A0B0C0D08
:101C20000E0F1010010200000010024000127A0096
:101C300000093D00F8B504460CB90120F8BD207834
:101C400000F00100002878D0F848406800F00C004F
:101C500004280CD0F548406800F00C00082811D189
:101C6000F248406800F48030B0F5803F0AD1EF4878
:101C7000006800F4003000285FD0606800285CD164
:101C80000120DBE700BF6068B0F5803F06D1E74880
:101C9000006840F48030E549086028E0606858B981
:101CA000E248006820F48030E04908600846006897
:101CB00020F4802008601AE06068B0F5A02F0BD1F6
:101CC000DA48006840F48020D84908600846006877
:101CD00040F4803008600AE0D448006820F4803086
:101CE000D24908600846006820F48020086000BFE0
:101CF000606888B1FFF788FC054606E0FFF784FCC2
:101D0000401B642801D9032098E7C848006800F404
:101D100000300028F2D010E0FFF776FC054606E020
:101D2000FFF772FC401B642801D9032086E7BF48F7
:101D3000006800F400300028F2D1207800F00200A2
:101D4000022857D1B948406800F00C0050B1B7489C
:101D5000406800F00C00082818D1B448406800F42E
:101D6000803098B9B148006800F0020020B12069C5
:101D7000012801D0012061E7AC48006820F0F8009C
:101D8000616940EAC100A949086033E02069E8B10F
:101D90000120A7490860FFF737FC054606E0FFF77A
:101DA00033FC401B022801D9032047E79F48006805
:101DB00000F002000028F2D09C48006820F0F800F3
:101DC000616940EAC1009949086013E00020984920
:101DD0000860FFF719FC054606E0FFF715FC401BFD
:101DE000022801D9032029E79048006800F002008A
:101DF0000028F2D1207800F0080008282DD1A06931
:101E0000B8B101208B490860FFF7FEFB054606E0EC
:101E1000FFF7FAFB401B022801D903200EE7834895
:101E2000406A00F002000028F2D0012003F068FCB4
:101E300013E000207F490860FFF7E6FB054606E057
:101E4000FFF7E2FB401B022801D90320F6E67748A2
:101E5000406A00F002000028F2D1207800F004006F
:101E6000042873D100277148C06900F0805070B910
:101E700000BF6E48C06940F080506C49C861084698
:101E8000C06900F08050009000BF00BF01276A4881
:101E9000006800F48070B0B96748006840F4807052
:101EA00065490860FFF7B0FB054606E0FFF7ACFBAD
:101EB000401B642801D90320C0E65F48006800F495
:101EC00080700028F2D000BFE068012806D1574892
:101ED000006A40F001005549086227E0E06858B9FF
:101EE0005248006A20F00100504908620846006A22
:101EF00020F00400086219E0E06805280BD14B4887
:101F0000006A40F00400494908620846006A40F04F
:101F1000010008620AE04548006A20F001004349D8
:101F200008620846006A20F00400086200BFE0680A
:101F3000A0B1FFF769FB054609E0FFF765FB401B11
:101F400041F28831884202D9032077E622E03748FF
:101F5000006A00F002000028EFD012E0FFF754FB07
:101F6000054608E0FFF750FB401B41F288318842EC
:101F700001D9032062E62D48006A00F00200002823
:101F8000F0D1012F05D12948C06920F080502749A0
:101F9000C86100BFE069C8B32448406800F00C0085
:101FA000082860D0E069022848D10020204908664E
:101FB000FFF72AFB054606E0FFF726FB401B022839
:101FC00001D903203AE61948006800F000700028A3
:101FD000F2D1206AB0F5803F07D11448406820F460
:101FE0000030A168084311494860D4E9080108435A
:101FF0000E49496821F4741108430C4948600120D6
:102000000B490866FFF700FB054607E03DE0FFF7D8
:10201000FBFA401B022801D903200FE603480068A1
:1020200000F000700028F2D02FE000000010024005
:1020300000004242800442420070004000201449E7
:102040000866FFF7E1FA054606E0FFF7DDFA401BF8
:10205000022801D90320F1E50E48006800F0007065
:102060000028F2D111E0E069012800D1E6E5094835
:10207000466806F48031206A814204D106F470116A
:10208000606A814201D00120D8E50020D6E5000039
:10209000000042420010024070B504460E4615464C
:1020A0000CB9012070BD94F8410028B9002084F8D3
:1020B0004000204600F020F804F108012068FEF7F7
:1020C000EDFB3146A2682068FEF720FC2946236B11
:1020D000D4E90102FEF7C0FBA168206850F8210096
:1020E00040F00100A268216841F82200012084F834
:1020F00041000020D6E7000010B586B0044600BFBE
:102100002848406940F48070264948610846406983
:1021100000F48070019000BF00BF00BF08468069D6
:1021200040F0200088610846806900F0200001909E
:1021300000BF00BF00BF0846806940F040008861D2
:102140000846806900F04000019000BF00BF00BF5A
:102150000846806940F4807088610846806900F410
:102160008070019000BF00BF4CF2337002900220DB
:102170000390012004900320059002A90A48FFF76C
:1021800095F84FF68070029002A90848FFF78EF884
:1021900041F20100029002A90548FFF787F806B056
:1021A00010BD000000100240001401400018014062
:1021B00000200140042808D14FF0E021096941F0D6
:1021C00004014FF0E022116107E04FF0E0210969BE
:1021D00021F004014FF0E0221161704770B5044610
:1021E0002546681EB0F1807F01D301200FE0681EF4
:1021F0004FF0E02148610F214FF0FF3003F03AFD2E
:1022000000204FF0E021886107200861002070BDA8
:1022100010B504460CB9012010BD94F83D0028B952
:10222000002084F83C00204600F00CF8022084F8DE
:102230003D00211D206803F0F5FA012084F83D00DF
:102240000020E9E7704701460868C06840F00100D7
:102250000B68D8600868806800F00702062A05D07D
:102260000868006840F001000B68186000207047A3
:10227000704701460022002391F8392091F83A3046
:1022800042EA0300704700002DE9F0470446206849
:1022900005682068C668206847694FF00008C14695
:1022A00005F00F08B8F1000F0AD105F0200038B191
:1022B00006F0200020B1204603F05AFBBDE8F0876D
:1022C000B8F1000F6DD007F0010018B906F4907056
:1022D000002866D005F0010030B106F4807018B116
:1022E000E06B40F00100E06305F0040030B107F05E
:1022F000010018B1E06B40F00200E06305F002005D
:1023000030B107F0010018B1E06B40F00400E06369
:1023100005F0080030B107F0010018B1E06B40F0A3
:102320000800E063E06B68B305F0200028B106F018
:10233000200010B1204603F01BFB20684069C0F369
:102340008019E06B00F0080010B9B9F1000F22D03D
:10235000204603F0EDFA2068406900F04000B0B17B
:102360002068406920F0400021684861606B50B1EE
:102370001748616B4863606BFEF7C4FE10B1606B79
:10238000416B88470CE02046FFF772FF08E02046CB
:10239000FFF76EFF04E02046FFF76AFF0020E063CE
:1023A0008CE705F0800030B106F0800018B12046BF
:1023B00003F002FC82E705F0400030B106F0400077
:1023C00018B1204603F0C4FA78E700BF76E70000B2
:1023D0001D59000810B504460CB9012010BDA069B4
:1023E00000B100E000BF94F8390028B9002084F85B
:1023F0003800204600F028F8242084F839002068AE
:10240000C06820F400502168C860204603F004FB37
:102410002068006920F490402168086120684069C4
:1024200020F02A00216848612068C06840F400500C
:102430002168C8600020E063202084F8390084F817
:102440003A000020CAE7000010B586B004462549CE
:102450002068884244D100BF2348806940F00400CE
:10246000214988610846806900F00400019000BF9E
:1024700000BF00BF0846806940F48040886108467C
:10248000806900F48040019000BF00BF00BF084693
:10249000806940F0010088610846806900F0010011
:1024A000019000BF00BF4815029002200390012058
:1024B00004900320059002A90C48FEF7F7FE4FF4A4
:1024C000806002900020039002A90848FEF7EEFE0B
:1024D0002520FFF7E6F8032211462520FFF7F1F843
:1024E00006B010BD00380140001002400008014055
:1024F00010B5034693F83A0020282FD101B10AB94C
:10250000012010BD00BF93F83800012801D102203E
:10251000F7E7012083F8380000BF99629A85DA85D1
:102520000020D863222083F83A0000BF002083F8FF
:10253000380000BF1868C06840F480701C68E06014
:102540001868406940F001001C6860611868C06844
:1025500040F020001C68E0600020D2E70220D0E7B5
:102560001D4A0168914236D11C49098801F4004195
:1025700089BB1A49098801F4804171B11849097869
:102580000A2903D00021154A118024E01349098843
:1025900041F40041114A11801DE0114909780D29CB
:1025A00006D10E49098841F480410C4A118012E09D
:1025B0000B490978094A1288C2F30D02094B995454
:1025C00006490988491C054A118011460988C7290E
:1025D00001DD002111807047003801401800002003
:1025E0001A00002058010020704700BFFEE70000DD
:1025F00000B585B000BF1A48806940F00400184952
:1026000088610846806900F00400009000BF00BFA8
:1026100000BF0846806940F0400088610846806934
:1026200000F04000009000BF00BF0120019000209A
:102630000290022003900320049001A90948FEF7AC
:1026400035FE1C2001900020029001200390032001
:10265000049001A90448FEF729FE05B000BD000062
:1026600000100240000801400018014010B5044667
:10267000012C01D12C4908702B480078002837D054
:1026800010212A48FEF7B2FF78B108212748FEF74B
:10269000ADFF50B104212548FEF7A8FF28B1012164
:1026A0002348FEF7A3FF012822D10A2003F00AFBEA
:1026B00000201D49087010211C48FEF797FF08B93B
:1026C000012010BD08211948FEF790FF08B902202B
:1026D000F7E704211548FEF789FF08B90320F0E762
:1026E00001211348FEF782FF01281BD10420E8E7EF
:1026F00010210E48FEF77AFF012813D108210B485C
:10270000FEF774FF01280DD104210848FEF76EFF83
:10271000012807D101210648FEF768FF10B9012002
:10272000014908700020CCE7540100200018014046
:102730000008014070B50446002609480588408815
:1027400045430021084602F08FFD02F05DFF00BF07
:1027500002E004480480761CAE42FAD370BD00004B
:10276000480300200008006C10B5044649488471F5
:10277000002C45D1F020474908804FF4A0704880D4
:102780000846808845F21051884210D14FF43050ED
:10279000404908814FF4285048814FF42C508881DB
:1027A0004FF4F07008804FF4487048801AE03948C0
:1027B000808841F6631188420DD12C20354908816B
:1027C0002B2048812A2088814FF4F07008804FF434
:1027D0004870488006E02C202E4908812A20488134
:1027E0002B2088812B48808845F2103188424CD1BB
:1027F0004FF4A070274908804FF4F070488044E0FF
:102800004FF4A07023490880F02048800846808853
:1028100045F21051884210D14FF430501D490881C3
:102820004FF4285048814FF42C5088814FF4487061
:1028300008804FF4F07048801AE01648808841F60E
:10284000631188420DD12C20124908812A20488129
:102850002B2088814FF4487008804FF4F070488036
:1028600006E02C200B4908812A2048812B208881F2
:102870000848808845F21031884206D14FF4F07044
:10288000044908804FF4A0704880002002F0D2FB79
:1028900010BD00004803002030B504460D463848FE
:1028A000808845F21051884220D13549488902F08C
:1028B0009FFE201202F090FE31494989491C88B2DE
:1028C00002F096FEE0B202F087FE2D49888902F000
:1028D0008FFE281202F080FE29498989491C88B29E
:1028E00002F086FEE8B202F077FE42E024488088DB
:1028F00041F66311884228D12148807920B92048C7
:102900000088401E001B84B21D49488902F070FEF9
:10291000201202F061FEE0B202F05EFE201202F030
:102920005BFEE0B202F058FE1549888902F060FEB5
:10293000281202F051FEE8B202F04EFE281202F018
:102940004BFEE8B202F048FE13E00D49488902F060
:102950004FFE201202F040FEE0B202F03DFE0849B8
:10296000888902F045FE281202F036FEE8B202F035
:1029700033FE0348008903490880881C028030BD6B
:1029800048030020FE07006C00B593B000BFFE486E
:10299000806940F00800FC4988610846806900F0C1
:1029A0000800009000BF00BF01200F901090119010
:1029B000032012900FA9F548FEF778FC4FF0204055
:1029C000F3490860F3484860062088600021F04819
:1029D000C16001611021416100218161C1614162D9
:1029E0004FF4805181620021C1624FF48041016344
:1029F00000214163816306200890002009901A207D
:102A00000A9000200E900490032001900020029074
:102A1000062003900020079001AA08A9DC48FFF7D0
:102A20003BFB322003F04EF9D32002F0E1FD02F02F
:102A3000CDFAD949888002F0C9FAD749888002F0D6
:102A4000C5FAD5498880084680884FF6FF7101EAAB
:102A50000020D149888002F0B9FACF49898808431B
:102A6000CD4988800846808849F2413188427DD02E
:102A7000042002F0BDFD02F0A9FAC749888002F0E7
:102A8000A5FAC549888002F0A1FAC34988800846A2
:102A900080884FF6FF7101EA0020BF49888002F06C
:102AA00095FABD4989880843BB49888008468088D3
:102AB00048F25251884203D147F28970B649888062
:102AC000B548808847F289718842D0D0D42002F07E
:102AD0008FFD02F07BFAB049888002F077FAAE49A8
:102AE000888002F073FAAC498880084680884FF6E7
:102AF000FF7101EA0020A849888002F067FAA64920
:102B000089880843A44988800846808845F21031A6
:102B1000884262D055214FF4704002F07FFDAA2117
:102B20004FF2010002F07AFD52214FF2020002F052
:102B300075FD08214FF2030002F070FD01214FF2F4
:102B4000040002F06BFD4FF4454002F051FD02F02D
:102B50003DFA91498880084680884FF6FF7101EA66
:102B600000208D4988804CF2015000E035E002F0F1
:102B70003FFD02F02BFA88498988084386498880FE
:102B8000052003F09FF88448808845F21051884260
:102B900023D0A12002F02CFD02F018FA7E49888093
:102BA00002F014FA7C498880084680884FF6FF714D
:102BB00001EA00207849888002F008FA764989887D
:102BC0000843754988800846808845F261718842CB
:102BD00003D141F66310704988806F4881886FA0E7
:102BE000FDF746FB6C48808849F2413188427CD130
:102BF000CF2002F0FDFC002002F0EEFCC12002F02C
:102C0000EBFC302002F0E8FCED2002F0F1FC642047
:102C100002F0E2FC032002F0DFFC122002F0DCFCF8
:102C2000812002F0D9FCE82002F0E2FC852002F0CD
:102C3000D3FC102002F0D0FC7A2002F0CDFCCB2097
:102C400002F0D6FC392002F0C7FC2C2002F0C4FCB4
:102C5000002002F0C1FC342002F0BEFC022002F091
:102C6000BBFCF72002F0C4FC202002F0B5FCEA20F7
:102C700002F0BEFC002002F0AFFC002002F0ACFC31
:102C8000C02002F0B5FC1B2002F0A6FCC12002F01F
:102C9000AFFC012002F0A0FCC52002F0A9FC30200E
:102CA00002F09AFC302002F097FCC72002F0A0FC52
:102CB000B72002F091FC362002F09AFC482002F086
:102CC0008BFC3A2002F094FC552002F085FCB120E8
:102CD00002F08EFC002002F07FFC1A2002F07CFC47
:102CE000B62002F085FC0A2000E0ACE002F074FCA3
:102CF000A22002F071FCF22002F07AFC002002F027
:102D00006BFC262002F074FC012002F065FCE02040
:102D100002F06EFC0F2002F05FFC2A2002F05CFC47
:102D2000282002F059FC082002F056FC0E2002F088
:102D300053FC082002F050FC542002F04DFCA92066
:102D400002F04AFC432002F047FC0A2002F044FC57
:102D50000F2002F041FC002002F03EFC002002F0B7
:102D60003BFC002002F038FC002002F035FCE120A2
:102D700002F03EFC002002F02FFC152002F02CFC9B
:102D8000172002F029FC11E000100240000C014065
:102D900000030020040100A048030020204C43440D
:102DA0002049443A25780D0A00000000072002F06F
:102DB00013FC112002F010FC062002F00DFC2B2069
:102DC00002F00AFC562002F007FC3C2002F004FC52
:102DD000052002F001FC102002F0FEFB0F2002F0A3
:102DE000FBFB3F2002F0F8FB3F2002F0F5FB0F2039
:102DF00002F0F2FB2B2002F0FBFB002002F0ECFBC8
:102E0000002002F0E9FB012002F0E6FB3F2002F087
:102E1000E3FB2A2002F0ECFB002002F0DDFB0020A7
:102E200002F0DAFB002002F0D7FBEF2002F0D4FB27
:102E3000112002F0DDFB782002F044FF292002F08F
:102E4000D7FB02F0A6B8FE48808847F28971884215
:102E50007ED1112002F0CCFB782002F033FF362027
:102E600002F0C6FB002002F0B7FB3A2002F0C0FBE4
:102E7000052002F0B1FBB22002F0BAFB0C2002F0F8
:102E8000ABFB0C2002F0A8FB002002F0A5FB3320D6
:102E900002F0A2FB332002F09FFBB72002F0A8FB58
:102EA000352002F099FBBB2002F0A2FB322002F099
:102EB00093FBC02002F09CFB0C2002F08DFBC22093
:102EC00002F096FB012002F087FBC32002F090FB8A
:102ED000102002F081FBC42002F08AFB202002F0C7
:102EE0007BFBC62002F084FB0F2002F075FBD02094
:102EF00002F07EFBA42002F06FFBA12002F06CFB2D
:102F0000E02002F075FBD02002F066FB002002F00A
:102F100063FB022002F060FB072002F05DFB0A2049
:102F200002F05AFB282002F057FB322002F054FB3B
:102F3000442002F051FB422002F04EFB062002F03A
:102F40004BFB0E2002F048FB122002F045FB00E094
:102F500054E0142002F040FB172002F03DFBE1207A
:102F600002F046FBD02002F037FB002002F034FBD9
:102F7000022002F031FB072002F02EFB0A2002F0B3
:102F80002BFB282002F028FB312002F025FB5420E7
:102F900002F022FB472002F01FFB0E2002F01CFB78
:102FA0001C2002F019FB172002F016FB1B2002F078
:102FB00013FB1E2002F010FB2A2002F019FB002058
:102FC00002F00AFB002002F007FB002002F004FBE5
:102FD000EF2002F001FB2B2002F00AFB002002F0A0
:102FE000FBFA002002F0F8FA012002F0F5FA3F2087
:102FF00002F0F2FA292002F0FBFA22E790488088DA
:1030000045F21031884240F07C87ED2002F0F0FA62
:10301000012002F0E1FAFE2002F0DEFAEE2002F0DA
:10302000E7FADE2002F0D8FA212002F0D5FAF120EA
:1030300002F0DEFA012002F0CFFADF2002F0D8FA27
:10304000102002F0C9FAC42002F0D2FA8F2002F058
:10305000C3FAC62002F0CCFA002002F0BDFAE2204A
:1030600002F0BAFAE22002F0B7FAE22002F0B4FA73
:10307000BF2002F0BDFAAA2002F0AEFAB02002F0A2
:10308000B7FA0D2002F0A8FA002002F0A5FA0D20F0
:1030900002F0A2FA002002F09FFA112002F09CFA3E
:1030A000002002F099FA192002F096FA002002F0AE
:1030B00093FA212002F090FA002002F08DFA2D20E0
:1030C00002F08AFA002002F087FA3D2002F084FA2A
:1030D000002002F081FA5D2002F07EFA002002F06A
:1030E0007BFA5D2002F078FA002002F075FAB12038
:1030F00002F07EFA802002F06FFA002002F06CFAF3
:103100008B2002F069FA002002F066FA962002F0A5
:1031100063FA002002F060FAB22002F069FA00209F
:1031200002F05AFA002002F057FA022002F054FA94
:10313000002002F051FA032002F04EFA002002F0C3
:103140004BFAB32002F054FA002002F045FA0020B6
:1031500002F042FA002002F03FFA002002F03CFAAE
:10316000002002F039FA002002F036FA002002F0C6
:1031700033FA002002F030FA002002F02DFA00208D
:1031800002F02AFA002002F027FA002002F024FAC6
:10319000002002F021FA002002F01EFA002002F0C6
:1031A0001BFA002002F018FA002002F015FA0020A5
:1031B00002F012FA002002F00FFA002002F00CFADE
:1031C000002002F009FA002002F006FA002002F0C6
:1031D00003FA002002F000FAB42002F009FA8B2072
:1031E00002F0FAF9002002F0F7F9962002F0F4F963
:1031F000002002F0F1F9A12002F0EEF9002002F027
:10320000EBF9B52002F0F4F9022002F0E5F9002014
:1032100002F0E2F9032002F0DFF9002002F0DCF90D
:10322000042002F0D9F9002002F0D6F9B62002F00D
:10323000DFF9002002F0D0F9002002F0CDF901E022
:1032400048030020B72002F0D3F9002002F0C4F9AF
:10325000002002F0C1F93F2002F0BEF9002002F088
:10326000BBF95E2002F0B8F9002002F0B5F9642045
:1032700002F0B2F9002002F0AFF98C2002F0ACF9B4
:10328000002002F0A9F9AC2002F0A6F9002002F01B
:10329000A3F9DC2002F0A0F9002002F09DF97020D3
:1032A00002F09AF9002002F097F9902002F094F9C8
:1032B000002002F091F9EB2002F08EF9002002F0DC
:1032C0008BF9DC2002F088F9002002F085F9B820A3
:1032D00002F08EF9002002F07FF9002002F07CF964
:1032E000002002F079F9002002F076F9002002F0C7
:1032F00073F9002002F070F9002002F06DF900204F
:1033000002F06AF9BA2002F073F9242002F064F99D
:10331000002002F061F9002002F05EF9002002F0C6
:103320005BF9C12002F064F9202002F055F9002079
:1033300002F052F9542002F04FF9002002F04CF94B
:10334000FF2002F049F9002002F046F9C22002F005
:103350004FF90A2002F040F9002002F03DF9042064
:1033600002F03AF9002002F037F9C32002F040F9E8
:103370003C2002F031F9002002F02EF93A2002F050
:103380002BF9002002F028F9392002F025F900205D
:1033900002F022F9372002F01FF9002002F01CF998
:1033A0003C2002F019F9002002F016F9362002F054
:1033B00013F9002002F010F9322002F00DF900207C
:1033C00002F00AF92F2002F007F9002002F004F9B8
:1033D0002C2002F001F9002002F0FEF8292002F072
:1033E000FBF8002002F0F8F8262002F0F5F80020A3
:1033F00002F0F2F8242002F0EFF8002002F0ECF8DE
:10340000242002F0E9F8002002F0E6F8232002F080
:10341000E3F8002002F0E0F83C2002F0DDF80020A4
:1034200002F0DAF8362002F0D7F8002002F0D4F8E3
:10343000322002F0D1F8002002F0CEF82F2002F066
:10344000CBF8002002F0C8F82C2002F0C5F80020CC
:1034500002F0C2F8292002F0BFF8002002F0BCF808
:10346000262002F0B9F8002002F0B6F8242002F07D
:10347000B3F8002002F0B0F8242002F0ADF80020EC
:1034800002F0AAF8232002F0A7F8002002F0A4F826
:10349000C42002F0ADF8622002F09EF8002002F095
:1034A0009BF8052002F098F8002002F095F884209F
:1034B00002F092F8002002F08FF8F02002F08CF871
:1034C000002002F089F8182002F086F8002002F0AF
:1034D00083F8A42002F080F8002002F07DF8182084
:1034E00002F07AF8002002F077F8502002F074F829
:1034F000002002F071F80C2002F06EF8002002F0BB
:103500006BF8172002F068F8002002F065F89520AB
:1035100002F062F8002002F05FF8F32002F05CF89D
:10352000002002F059F8E62002F056F8002002F0E0
:1035300053F8C52002F05CF8322002F04DF800206C
:1035400002F04AF8442002F047F8002002F044F864
:10355000652002F041F8002002F03EF8762002F0EB
:103560003BF8002002F038F8882002F035F80020FF
:1035700002F032F8C62002F03BF8202002F02CF8CE
:10358000002002F029F8172002F026F8002002F0AF
:1035900023F8012002F020F8002002F01DF8C720D7
:1035A00002F026F8002002F017F8002002F014F8CC
:1035B000002002F011F8002002F00EF8C82002F0FE
:1035C00017F8002002F008F8002002F005F80020AB
:1035D00002F002F8002001F0FFFFC92002F008F815
:1035E000002001F0F9FF002001F0F6FF002001F0BB
:1035F000F3FF002001F0F0FF002001F0EDFF0020BC
:1036000001F0EAFF002001F0E7FF002001F0E4FFF5
:10361000002001F0E1FF002001F0DEFF002001F0BA
:10362000DBFF002001F0D8FF002001F0D5FF0020D3
:1036300001F0D2FF002001F0CFFF002001F0CCFF0D
:10364000E02001F0D5FF162001F0C6FF002001F0B8
:10365000C3FF1C2001F0C0FF002001F0BDFF2120AE
:1036600001F0BAFF002001F0B7FF362001F0B4FFEF
:10367000002001F0B1FF462001F0AEFF002001F074
:10368000ABFF522001F0A8FF002001F0A5FF64204D
:1036900001F0A2FF002001F09FFF7A2001F09CFFC3
:1036A000002001F099FF8B2001F096FF002001F02F
:1036B00093FF992001F090FF002001F08DFFA820DA
:1036C00001F08AFF002001F087FFB92001F084FF9C
:1036D000002001F081FFC42001F07EFF002001F0F6
:1036E0007BFFCA2001F078FF002001F075FFD22097
:1036F00001F072FF002001F06FFFD92001F06CFF94
:10370000002001F069FFE02001F066FF002001F0D9
:1037100063FFF32001F060FF002001F05DFFE12076
:1037200001F066FF162001F057FF002001F054FF62
:103730001C2001F051FF002001F04EFF222001F07B
:103740004BFF002001F048FF362001F045FF00202C
:1037500001F042FF452001F03FFF002001F03CFF57
:10376000522001F039FF002001F036FF642001F003
:1037700033FF002001F030FF7A2001F02DFF002000
:1037800001F02AFF8B2001F027FF002001F024FF29
:10379000992001F021FF002001F01EFFA82001F078
:1037A0001BFF002001F018FFB92001F015FF0020D9
:1037B00001F012FFC42001F00FFF002001F00CFF08
:1037C000CA2001F009FF002001F006FFD22001F01D
:1037D00003FF002001F000FFD82001F0FDFE0020D3
:1037E00001F0FAFEE02001F0F7FE002001F0F4FE07
:1037F000F32001F0F1FE002001F0EEFEE22001F0E6
:10380000F7FE052001F0E8FE002001F0E5FE0B20A8
:1038100001F0E2FE002001F0DFFE1B2001F0DCFEE3
:10382000002001F0D9FE342001F0D6FE002001F086
:10383000D3FE442001F0D0FE002001F0CDFE4F2049
:1038400001F0CAFE002001F0C7FE612001F0C4FEB5
:10385000002001F0C1FE792001F0BEFE002001F041
:10386000BBFE882001F0B8FE002001F0B5FE9720D5
:1038700001F0B2FE002001F0AFFEA62001F0ACFE88
:10388000002001F0A9FEB72001F0A6FE002001F003
:10389000A3FEC22001F0A0FE002001F09DFEC72083
:1038A00001F09AFE002001F097FED12001F094FE75
:1038B000002001F091FED62001F08EFE002001F0E4
:1038C0008BFEDD2001F088FE002001F085FEF32054
:1038D00001F082FE002001F07FFEE32001F088FE6F
:1038E000052001F079FE002001F076FE0A2001F0AB
:1038F00073FE002001F070FE1C2001F06DFE002020
:1039000001F06AFE332001F067FE002001F064FE42
:10391000442001F061FE002001F05EFE502001F025
:103920005BFE002001F058FE622001F055FE0020F1
:1039300001F052FE782001F04FFE002001F04CFE15
:10394000882001F049FE002001F046FE972001F09A
:1039500043FE002001F040FEA62001F03DFE0020C5
:1039600001F03AFEB72001F037FE002001F034FEEE
:10397000C22001F031FE002001F02EFEC72001F030
:103980002BFE002001F028FED12001F025FE0020B2
:1039900001F022FED52001F01FFE002001F01CFEE8
:1039A000DD2001F019FE002001F016FEF32001F0E9
:1039B00013FE002001F010FEE42001F019FE0120AA
:1039C00001F00AFE002001F007FE012001F004FED4
:1039D000002001F001FE022001F0FEFD002001F0B8
:1039E000FBFD2A2001F0F8FD002001F0F5FD3C2050
:1039F00001F0F2FD002001F0EFFD4B2001F0ECFDA5
:103A0000002001F0E9FD5D2001F0E6FD002001F05D
:103A1000E3FD742001F0E0FD002001F0DDFD8420D5
:103A200001F0DAFD002001F0D7FD932001F0D4FD74
:103A3000002001F0D1FDA22001F0CEFD002001F018
:103A4000CBFDB32001F0C8FD002001F0C5FDBE2074
:103A500001F0C2FD002001F0BFFDC42001F0BCFD5B
:103A6000002001F0B9FDCD2001F0B6FD002001F0ED
:103A7000B3FDD32001F0B0FD002001F0ADFDDD204D
:103A800001F0AAFD002001F0A7FDF32001F0A4FD44
:103A9000002001F0A1FDE52001F0AAFD002001F0C9
:103AA0009BFD002001F098FD002001F095FD002015
:103AB00001F092FD022001F08FFD002001F08CFD4D
:103AC000292001F089FD002001F086FD3C2001F055
:103AD00083FD002001F080FD4B2001F07DFD0020E2
:103AE00001F07AFD5D2001F077FD002001F074FD0A
:103AF000742001F071FD002001F06EFD842001F0C2
:103B00006BFD002001F068FD932001F065FD0020B1
:103B100001F062FDA22001F05FFD002001F05CFDDC
:103B2000B32001F059FD002001F056FDBE2001F048
:103B300053FD002001F050FDC42001F04DFD002098
:103B400001F04AFDCD2001F047FD002001F044FDC9
:103B5000D32001F041FD002001F03EFDDC2001F00A
:103B60003BFD002001F038FDF32001F035FD002081
:103B700001F032FDE62001F03BFD112001F02CFDAB
:103B8000002001F029FD342001F026FD002001F085
:103B900023FD562001F020FD002001F01DFD7620C0
:103BA00001F01AFD002001F017FD772001F014FD4F
:103BB000002001F011FD662001F00EFD002001F053
:103BC0000BFD882001F008FD002001F005FD992083
:103BD00001F002FD002001F0FFFCBB2001F0FCFC25
:103BE000002001F0F9FC992001F0F6FC002001F022
:103BF000F3FC662001F0F0FC002001F0EDFC552004
:103C000001F0EAFC002001F0E7FC552001F0E4FCA3
:103C1000002001F0E1FC452001F0DEFC002001F075
:103C2000DBFC432001F0D8FC002001F0D5FC44204F
:103C300001F0D2FC002001F0CFFCE72001F0D8FC1D
:103C4000322001F0C9FC002001F0C6FC552001F033
:103C5000C3FC002001F0C0FC762001F0BDFC002078
:103C600001F0BAFC662001F0B7FC002001F0B4FCC2
:103C7000672001F0B1FC002001F0AEFC672001F0EC
:103C8000ABFC002001F0A8FC872001F0A5FC00207F
:103C900001F0A2FC992001F09FFC002001F09CFCA7
:103CA000BB2001F099FC002001F096FC992001F066
:103CB00093FC002001F090FC772001F08DFC0020A7
:103CC00001F08AFC442001F087FC002001F084FC14
:103CD000562001F081FC002001F07EFC232001F041
:103CE0007BFC002001F078FC332001F075FC002003
:103CF00001F072FC452001F06FFC002001F06CFC2B
:103D0000E82001F075FC002001F066FC002001F0C5
:103D100063FC992001F060FC002001F05DFC87202D
:103D200001F05AFC002001F057FC882001F054FCFF
:103D3000002001F051FC772001F04EFC002001F042
:103D40004BFC662001F048FC002001F045FC882077
:103D500001F042FC002001F03FFCAA2001F03CFCF5
:103D6000002001F039FCBB2001F036FC002001F0FE
:103D700033FC992001F030FC002001F02DFC66207E
:103D800001F02AFC002001F027FC552001F024FC62
:103D9000002001F021FC552001F01EFC002001F064
:103DA0001BFC442001F018FC002001F015FC44200D
:103DB00001F012FC002001F00FFC552001F00CFC7A
:103DC000002001F009FCE92001F012FCAA2001F01A
:103DD00003FC002001F000FC002001F0FDFB0020AE
:103DE00001F0FAFB002001F003FCAA2001F0F4FB33
:103DF000CF2001F0FDFB002001F0EEFB002001F0E0
:103E0000EBFB002001F0E8FB002001F0E5FB0020C7
:103E100001F0E2FB002001F0DFFB002001F0DCFB01
:103E2000002001F0D9FB002001F0D6FB002001F0BA
:103E3000D3FB002001F0D0FB002001F0CDFB0020DF
:103E400001F0CAFB002001F0C7FB002001F0C4FB19
:103E5000002001F0C1FB002001F0BEFBF02001F0CA
:103E6000C7FB002001F0B8FB502001F0B5FB00209B
:103E700001F0B2FB002001F0AFFB002001F0ACFB31
:103E8000F32001F0B5FB002001F0A6FBF92001F0C2
:103E9000AFFB062001F0A0FB102001F09DFB2920C4
:103EA00001F09AFB002001F097FB3A2001F0A0FB03
:103EB000552001F091FB112001F09AFB642001F0E4
:103EC00001FF292001F094FB352001F091FB002037
:103ED00001F082FB512001F08BFBFF2001F07CFB05
:103EE000532001F085FB2C2001F076FB552001F0DA
:103EF0007FFB822001F070FB2C2001F079FB01F0A8
:103F000048B8FE48808845F2105188427ED155213C
:103F10004FF4704001F082FBAA214FF2010001F042
:103F20007DFB52214FF2020001F078FB08214FF295
:103F3000030001F073FB01214FF2040001F06EFB5E
:103F40000D214FF4304001F069FB0D214BF20100CF
:103F500001F064FB0D214BF2020001F05FFB342104
:103F60004FF4364001F05AFB34214BF2016001F06E
:103F700055FB34214BF2026001F050FB0D214FF450
:103F8000314001F04BFB0D214BF2011001F046FBDB
:103F90000D214BF2021001F041FB34214FF4374068
:103FA00001F03CFB34214BF2017001F037FB34216E
:103FB0004BF2027001F032FB00214FF4324001F06D
:103FC0002DFB00214BF2012001F028FB00214BF2D8
:103FD000022001F023FB24214FF4384001F01EFBA6
:103FE00024214BF6010001F019FB24214BF60200BD
:103FF00001F014FB01214FF43F4001F00FFB0F21B2
:104000004FF4334001F00AFB0F2100E0FEE34BF2D6
:10401000013001F003FB0F214BF2023001F0FEFAF8
:1040200034214FF4394001F0F9FA34214BF60110F4
:1040300001F0F4FA34214BF6021001F0EFFA0821F6
:104040004FF4354001F0EAFA08214BF2015001F03B
:10405000E5FA08214BF2025001F0E0FA03214FF497
:10406000424001F0DBFA24214FF43A4001F0D6FA45
:1040700024214BF6012001F0D1FA24214BF6022035
:1040800001F0CCFA00214FF43C4001F0C7FA78214E
:104090004BF6014001F0C2FA00214BF6024001F05C
:1040A000BDFA00214FF43D4001F0B8FA78214BF6FB
:1040B000015001F0B3FA00214BF6025001F0AEFAC4
:1040C00000214FF43E4001F0A9FA64214BF6016053
:1040D00001F0A4FA00214FF4514001F09FFA33217E
:1040E0004DF2011001F09AFA00214DF2021001F098
:1040F00095FA34214DF2031001F090FA00214DF2AF
:10410000041001F08BFA3A214DF2051001F086FA05
:1041100000214DF2061001F081FA4A214DF20710FC
:1041200001F07CFA00214DF2081001F077FA5C21D1
:104130004DF2091001F072FA00214DF20A1001F05F
:104140006DFA81214DF20B1001F068FA00214DF259
:104150000C1001F063FAA6214DF20D1001F05EFA89
:1041600000214DF20E1001F059FAE5214DF20F1029
:1041700001F054FA01214DF2101001F04FFA132111
:104180004DF2111001F04AFA01214DF2121001F026
:1041900045FA54214DF2131001F040FA01214DF27D
:1041A000141001F03BFA82214DF2151001F036FA9D
:1041B00001214DF2161001F031FACA214DF217100B
:1041C00001F02CFA02214DF2181001F027FA00211B
:1041D0004DF2191001F022FA02214DF21A1001F0ED
:1041E0001DFA01214DF21B1001F018FA02214DF2C7
:1041F0001C1001F013FA34214DF21D1001F00EFADB
:1042000002214DF21E1001F009FA67214DF21F1034
:1042100001F004FA02214DF2201001F0FFF984218F
:104220004DF2211001F0FAF902214DF2221001F0B5
:10423000F5F9A4214DF2231001F0F0F902214DF21D
:10424000241001F0EBF9B7214DF2251001F0E6F949
:1042500002214DF2261001F0E1F9CF214DF2271095
:1042600001F0DCF902214DF2281001F0D7F9DE212E
:104270004DF2291001F0D2F902214DF22A1001F07D
:10428000CDF9F2214DF22B1001F0C8F902214DF2C7
:104290002C1001F0C3F9FE214DF22D1001F0BEF9F2
:1042A00003214DF22E1001F0B9F910214DF22F101B
:1042B00001F0B4F903214DF2301001F0AFF93321D0
:1042C0004DF2311001F0AAF903214DF2321001F044
:1042D000A5F96D214DF2331001F0A0F900214FF442
:1042E000524001F09BF933214DF2012001F096F983
:1042F00000214DF2022001F091F901E04803002075
:1043000034214DF2032001F089F900214DF20420FF
:1043100001F084F93A214DF2052001F07FF90021E6
:104320004DF2062001F07AF94A214DF2072001F002
:1043300075F900214DF2082001F070F95C214DF271
:10434000092001F06BF900214DF20A2001F066F915
:1043500081214DF20B2001F061F900214DF20C207A
:1043600001F05CF9A6214DF20D2001F057F9002172
:104370004DF20E2001F052F9E5214DF20F2001F02F
:104380004DF901214DF2102001F048F913214DF2B1
:10439000112001F043F901214DF2122001F03EF904
:1043A00054214DF2132001F039F901214DF214206E
:1043B00001F034F982214DF2152001F02FF901218D
:1043C0004DF2162001F02AF9CA214DF2172001F012
:1043D00025F902214DF2182001F020F900214DF2BB
:1043E000192001F01BF902214DF21A2001F016F9F3
:1043F00001214DF21B2001F011F902214DF21C2088
:1044000001F00CF934214DF21D2001F007F90221D1
:104410004DF21E2001F002F967214DF21F2001F03C
:10442000FDF802214DF2202001F0F8F884214DF230
:10443000212001F0F3F802214DF2222001F0EEF8E4
:10444000A4214DF2232001F0E9F802214DF22420AD
:1044500001F0E4F8B7214DF2252001F0DFF8022148
:104460004DF2262001F0DAF8CF214DF2272001F09D
:10447000D5F802214DF2282001F0D0F8DE214DF2CE
:10448000292001F0CBF802214DF22A2001F0C6F8D4
:10449000F2214DF22B2001F0C1F802214DF22C2027
:1044A00001F0BCF8FE214DF22D2001F0B7F80321F8
:1044B0004DF22E2001F0B2F810214DF22F2001F024
:1044C000ADF803214DF2302001F0A8F833214DF270
:1044D000312001F0A3F803214DF2322001F09EF8C3
:1044E0006D214DF2332001F099F800214FF4534033
:1044F00001F094F833214DF2013001F08FF80021E2
:104500004DF2023001F08AF834214DF2033001F00F
:1045100085F800214DF2043001F080F83A214DF287
:10452000053001F07BF800214DF2063001F076F8FD
:104530004A214DF2073001F071F800214DF20830A8
:1045400001F06CF85C214DF2093001F067F80021B0
:104550004DF20A3001F062F881214DF20B3001F08A
:104560005DF800214DF20C3001F058F8A6214DF213
:104570000D3001F053F800214DF20E3001F04EF8ED
:10458000E5214DF20F3001F049F801214DF21030D4
:1045900001F044F813214DF2113001F03FF80121F0
:1045A0004DF2123001F03AF854214DF2133001F07F
:1045B00035F801214DF2143001F030F882214DF22E
:1045C000153001F02BF801214DF2163001F026F8DC
:1045D000CA214DF2173001F021F802214DF21830B6
:1045E00001F01CF800214DF2193001F017F80221FA
:1045F0004DF21A3001F012F801214DF21B3001F09A
:104600000DF802214DF21C3001F008F834214DF272
:104610001D3001F003F802214DF21E3000F0FEFFC4
:1046200067214DF21F3000F0F9FF02214DF22030DA
:1046300000F0F4FF84214DF2213000F0EFFF022161
:104640004DF2223000F0EAFFA4214DF2233000F0B9
:10465000E5FF02214DF2243000F0E0FFB7214DF2DA
:10466000253000F0DBFF02214DF2263000F0D6FFAE
:10467000CF214DF2273000F0D1FF02214DF228303A
:1046800000F0CCFFDE214DF2293000F0C7FF0221FF
:104690004DF22A3000F0C2FFF2214DF22B3000F033
:1046A000BDFF02214DF22C3000F0B8FFFE214DF28B
:1046B0002D3000F0B3FF03214DF22E3000F0AEFF9D
:1046C00010214DF22F3000F0A9FF03214DF23030C0
:1046D00000F0A4FF33214DF2313000F09FFF0321A1
:1046E0004DF2323000F09AFF6D214DF2333000F080
:1046F00095FF00214FF4544000F090FF33214DF21C
:10470000014000F08BFF00214DF2024000F086FFD7
:1047100034214DF2034000F081FF00214DF20440AE
:1047200000F07CFF3A214DF2054000F077FF0021B8
:104730004DF2064000F072FF4A214DF2074000F0B2
:104740006DFF00214DF2084000F068FF5C214DF242
:10475000094000F063FF00214DF20A4000F05EFFC7
:1047600081214DF20B4000F059FF00214DF20C4029
:1047700000F054FFA6214DF20D4000F04FFF002144
:104780004DF20E4000F04AFFE5214DF20F4000F0DF
:1047900045FF01214DF2104000F040FF13214DF282
:1047A000114000F03BFF01214DF2124000F036FFB6
:1047B00054214DF2134000F031FF01214DF214401D
:1047C00000F02CFF82214DF2154000F027FF01215F
:1047D0004DF2164000F022FFCA214DF2174000F0C2
:1047E0001DFF02214DF2184000F018FF00214DF28C
:1047F000194000F013FF02214DF21A4000F00EFFA5
:1048000001214DF21B4000F009FF00E003E302210B
:104810004DF21C4000F002FF34214DF21D4000F02B
:10482000FDFE02214DF21E4000F0F8FE67214DF220
:104830001F4000F0F3FE02214DF2204000F0EEFE9A
:1048400084214DF2214000F0E9FE02214DF2224088
:1048500000F0E4FEA4214DF2234000F0DFFE02212F
:104860004DF2244000F0DAFEB7214DF2254000F071
:10487000D5FE02214DF2264000F0D0FECF214DF2B0
:10488000274000F0CBFE02214DF2284000F0C6FE8A
:10489000DE214DF2294000F0C1FE02214DF22A40F6
:1048A00000F0BCFEF2214DF22B4000F0B7FE0221D9
:1048B0004DF22C4000F0B2FEFE214DF22D4000F0F2
:1048C000ADFE03214DF22E4000F0A8FE10214DF266
:1048D0002F4000F0A3FE03214DF2304000F09EFE79
:1048E00033214DF2314000F099FE03214DF2324068
:1048F00000F094FE6D214DF2334000F08FFE002158
:104900004FF4554000F08AFE33214DF2015000F083
:1049100085FE00214DF2025000F080FE34214DF260
:10492000035000F07BFE00214DF2045000F076FEB3
:104930003A214DF2055000F071FE00214DF2065073
:1049400000F06CFE4A214DF2075000F067FE002196
:104950004DF2085000F062FE5C214DF2095000F06B
:104960005DFE00214DF20A5000F058FE81214DF20B
:104970000B5000F053FE00214DF20C5000F04EFEA3
:10498000A6214DF20D5000F049FE00214DF20E50CF
:1049900000F044FEE5214DF20F5000F03FFE0121F2
:1049A0004DF2105000F03AFE13214DF2115000F07C
:1049B00035FE01214DF2125000F030FE54214DF22F
:1049C000135000F02BFE01214DF2145000F026FE92
:1049D00082214DF2155000F021FE01214DF21650BA
:1049E00000F01CFECA214DF2175000F017FE022104
:1049F0004DF2185000F012FE00214DF2195000F057
:104A00000DFE02214DF21A5000F008FE01214DF278
:104A10001B5000F003FE02214DF21C5000F0FEFD81
:104A200034214DF21D5000F0F9FD02214DF21E50CF
:104A300000F0F4FD67214DF21F5000F0EFFD022160
:104A40004DF2205000F0EAFD84214DF2215000F09B
:104A5000E5FD02214DF2225000F0E0FDA4214DF2CF
:104A6000235000F0DBFD02214DF2245000F0D6FD72
:104A7000B7214DF2255000F0D1FD02214DF2265014
:104A800000F0CCFDCF214DF2275000F0C7FD0221F0
:104A90004DF2285000F0C2FDDE214DF2295000F009
:104AA000BDFD02214DF22A5000F0B8FDF2214DF279
:104AB0002B5000F0B3FD02214DF22C5000F0AEFD62
:104AC000FE214DF22D5000F0A9FD03214DF22E5094
:104AD00000F0A4FD10214DF22F5000F09FFD0321A6
:104AE0004DF2305000F09AFD33214DF2315000F07C
:104AF00095FD03214DF2325000F090FD6D214DF2F5
:104B0000335000F08BFD00214FF4564000F086FD3D
:104B100033214DF2016000F081FD00214DF2026071
:104B200000F07CFD34214DF2036000F077FD0021A0
:104B30004DF2046000F072FD3A214DF2056000F084
:104B40006DFD00214DF2066000F068FD4A214DF236
:104B5000076000F063FD00214DF2086000F05EFD8B
:104B60005C214DF2096000F059FD00214DF20A6010
:104B700000F054FD81214DF20B6000F04FFD00214B
:104B80004DF20C6000F04AFDA6214DF20D6000F0E0
:104B900045FD00214DF20E6000F040FDE5214DF293
:104BA0000F6000F03BFD01214DF2106000F036FD7A
:104BB00013214DF2116000F031FD01214DF2126020
:104BC00000F02CFD54214DF2136000F027FD01216F
:104BD0004DF2146000F022FD82214DF2156000F0CC
:104BE0001DFD01214DF2166000F018FDCA214DF2A5
:104BF000176000F013FD02214DF2186000F00EFD69
:104C000000214DF2196000F009FD02214DF21A60F9
:104C100000F004FD01214DF21B6000F0FFFC0221B9
:104C20004DF21C6000F0FAFC34214DF21D6000F0E2
:104C3000F5FC02214DF21E6000F0F0FC67214DF200
:104C40001F6000F0EBFC02214DF2206000F0E6FC5A
:104C500084214DF2216000F0E1FC02214DF222603E
:104C600000F0DCFCA4214DF2236000F0D7FC02210F
:104C70004DF2246000F0D2FCB7214DF2256000F027
:104C8000CDFC02214DF2266000F0C8FCCF214DF290
:104C9000276000F0C3FC02214DF2286000F0BEFC4A
:104CA000DE214DF2296000F0B9FC02214DF22A60AC
:104CB00000F0B4FCF2214DF22B6000F0AFFC0221B9
:104CC0004DF22C6000F0AAFCFE214DF22D6000F0A8
:104CD000A5FC03214DF22E6000F0A0FC10214DF246
:104CE0002F6000F09BFC03214DF2306000F096FC39
:104CF00033214DF2316000F091FC03214DF232601E
:104D000000F08CFC6D214DF2336000F087FC5521E2
:104D10004FF4704000F082FCAA214FF2010000F035
:104D20007DFC52214FF2020000F078FC08214FF286
:104D3000030000F073FC00214FF2040000F06EFC51
:104D4000CC214FF4314000F069FC00214BF20110FE
:104D500000F064FC05214FF4364000F05FFC702148
:104D60004FF4374000F05AFC70214BF2017000F014
:104D700055FC01214FF4384000F050FC03214BF664
:104D8000010000F04BFC03214BF6020000F046FC52
:104D900003214BF6030000F041FC02214FF43C409C
:104DA00000F03CFC00214BF6014000F037FC0021F4
:104DB0004BF6024000F032FCD0214FF4494000F0A5
:104DC0002DFC02214CF6011000F028FC50214CF67D
:104DD000021000F023FC50214CF6031000F01EFCE2
:104DE00050214CF6041000F019FC00214FF45450EF
:104DF00000F014FC55214FF4685000F00FFC4FF404
:104E0000885000F0F5FB782000F068FF4FF4245044
:104E100000F0EEFBBDE06548808841F663118842F2
:104E2000F8D1E22000F0E4FB1D2000F0D5FB0220C9
:104E300000F0D2FB042000F0CFFB642000F04EFF16
:104E4000E02000F0D5FB012000F0C6FB0A2000F0B6
:104E500039FFE02000F0CCFB032000F0BDFB0C206C
:104E600000F030FF012000F0C3FB0A2000F02AFF11
:104E7000E62000F0BDFB2F2000F0AEFBFF2000F08D
:104E8000ABFBFF2000F0A8FBB02000F0B1FB20201E
:104E900000F0A2FB002000F09FFB032000F09CFB31
:104EA00040F21F3000F098FB012000F095FB40F22B
:104EB000DF1000F091FB002000F08EFBB42000F02A
:104EC00097FB042000F088FB40F21F4000F084FBB9
:104ED000002000F081FB2E2000F07EFB002000F07F
:104EE0007BFB002000F078FB002000F075FB002029
:104EF00000F072FBB62000F07BFB022000F06CFBA0
:104F00004FF4037000F068FB002000F065FB1720F1
:104F100000F062FB152000F05FFB002000F05CFB5E
:104F2000002000F059FBF02000F062FB032000F0AD
:104F300053FB292000F05CFBD02000F059FB00203F
:104F400000F04AFBBE2000F053FB052000F044FBBC
:104F5000FE2000F041FB012000F03EFB002000F0AD
:104F60003BFB002000F038FB002000F035FBB820B0
:104F700000F03EFB032000F02FFB012000F02CFB93
:104F8000BA2000F035FB012000F026FB642000F081
:104F900027F80020FDF7E8FB0120054908604FF6DF
:104FA000FF70FDF7C7FB13B000BD000048030020F1
:104FB0008081214210B50246012000E050430B1EC3
:104FC000A1F10104E1B2F9D110BD000008B5034818
:104FD00000880090BDF8000008BD00000008006CCB
:104FE0002DE9F0470446BE2000F002FB052000F04A
:104FF000F3FA204602F0F7FA07464FF066320C4B00
:1050000002F004FB054602F0C1FA1FFA80F9484697
:1050100000F0E2FA012000F0DFFAFF2000F0DCFAF5
:10502000002000F0D9FA002000F0D6FABDE8F087A1
:1050300066660440F0B5054600240027894880795B
:10504000012805D18748808841F66311884208D13C
:1050500084488079F0B98348808841F6631188429A
:1050600018D1082D15D2DFE805F00406080A0C0E49
:10507000101206250DE007250BE0042509E00525A3
:1050800007E0012505E0002503E0032501E00225F6
:1050900000BF00BF082D1CD2DFE805F00406090C94
:1050A0000F12151800BF14E044F0800411E044F022
:1050B00040040EE044F0C0040BE044F0200408E09B
:1050C00044F0600405E044F0A00402E044F0E00491
:1050D00000BF00BF6348808845F21051884202D16A
:1050E0004FF4585700E036275E48808849F2413136
:1050F000884205D05B48808847F28971884201D197
:1051000044F008042146384600F088FA5548808863
:1051100041F6631188421DD004F0200068B1514867
:10512000008850494988884214DA4E4806884088E9
:105130004C490880084646800CE04A4800884949A6
:105140004988884206DD47480688408845490880E6
:10515000084646804348808845F21051884252D123
:105160004049488900F044FA002000F035FA3D49F2
:105170004989491C88B200F03BFA002000F02CFA63
:1051800038494989891C88B200F032FA35490988C2
:10519000491EC1F30F2000F01FFA32494989C91C8A
:1051A00088B200F025FA2F490978491EC8B200F0EC
:1051B00013FA2C49888900F01BFA002000F00CFA41
:1051C00028498989491C88B200F012FA002000F0B1
:1051D00003FA24498989891C88B200F009FA214917
:1051E0004988491EC1F30F2000F0F6F91D4989894D
:1051F000C91C88B200F0FCF91A498978491EC8B266
:1052000000F0EAF92DE01749488900F0F1F9002093
:1052100000F0E2F9002000F0DFF912490988491E88
:10522000C1F30F2000F0D8F90E490978491EC8B221
:1052300000F0D2F90B49888900F0DAF9002000F07B
:10524000CBF9002000F0C8F906494988491EC1F38E
:105250000F2000F0C1F903498978491EC8B200F057
:10526000BBF9F0BD4803002010B502460C46454886
:10527000808841F66311884247D142488079A8B9B5
:1052800040480088401E801A82B23E49488900F09A
:10529000AFF9002000F0A0F9002000F09DF91012F5
:1052A00000F09AF9D0B200F097F916E03549488934
:1052B00000F09EF9101200F08FF9D0B200F08CF9D6
:1052C00030490988491EC1F30F2000F085F92D49A6
:1052D0000978491EC8B200F07FF92A49888900F090
:1052E00087F9201200F078F9E0B200F075F925494D
:1052F0004988491EC1F30F2000F06EF921498978D1
:10530000491EC8B200F068F93AE01E48808845F2AC
:105310001051884220D11B49488900F069F91012C8
:1053200000F05AF917494989491C88B200F060F920
:10533000D0B200F051F91349888900F059F92012D0
:1053400000F04AF90F498989491C88B200F050F9E8
:10535000E0B200F041F913E00A49488900F048F949
:10536000101200F039F9D0B200F036F905498889F9
:1053700000F03EF9201200F02FF9E0B200F02CF915
:1053800010BD0000480300202DE9F84F80460E466E
:1053900017461C46B3462046E31704EB5373DB1055
:1053A00021464FEAE47C04EB5C7C4FEAEC0CA4EB76
:1053B000CC0CBCF1000F02D04FF0010C01E04FF01B
:1053C000000C6344224604EBD27C4FEA6C0C03FBD6
:1053D0000CF3DBB20093A7F12000C7B2002558E020
:1053E0000C2C07D107EB47002C4901EB800010F88B
:1053F000059013E0102C05D1294800EB071010F898
:1054000005900BE0182C07D107EBC700254901EBED
:10541000800010F8059001E0BDE8F88F4FF0000A19
:1054200031E009F0800038B11F48008882B231466F
:105430004046FDF731FA08E00A9830B91B48008869
:1054400082B231464046FDF727FA4FEA49604FEAFB
:105450001069701C86B216484088B04200DCDBE759
:10546000A6EB0B00A0420AD15E4608F101001FFA2C
:1054700080F80F480088404500DCCDE706E00AF1DF
:10548000010000F0FF0ABAF1080FCADB00BF681C78
:10549000C5B200988542A3DB00BFBDE7FE7A0008D5
:1054A000727F0008628500084C0100205001002036
:1054B000480300202DE9F84704460D4690469946DA
:1054C000DDE9096704F0FF0A08EB04001FFA80F821
:1054D00009EB05001FFA80F916E0444502DB54464B
:1054E000A81985B24D4500DB14E0002000903A7801
:1054F000334629462046FFF747FF304606EBD0717A
:1055000004EB61018CB27F1C38787E2802DC38788D
:105510002028E2DA00BFBDE8F8872DE9FF4F82B00E
:10552000064692461F46DDE90F48002001900025FF
:105530004DE0781B401EC1B20A20FFF73BFDBAFBCD
:10554000F0F00A21B0FBF1F201FB1209019850BB07
:10555000781EA84227DDB9F1000F22D108F08000A3
:1055600078B108F00100A34604EBDB71491001FBA0
:105570000561009088B2234630220399FFF704FFAB
:105580000EE008F00100A34604EBDB71491001FBBB
:105590000561009088B2234620220399FFF7F4FEAC
:1055A00013E00120019008F00100A34604EBDB7139
:1055B000491001FB0561009088B209F13001CAB2BF
:1055C00023460399FFF7E0FE00BF681CC5B2BD4249
:1055D000AFDB06B0BDE8F08F01B5BDF8000000906C
:1055E000BDF800000149088008BD00000008006CFB
:1055F00001B5BDF800000090BDF800000149088029
:1056000008BD0000FE07006C0248008902490880BE
:105610007047000048030020FE07006C024A10801B
:10562000921C118070470000FE07006C00B585B029
:1056300000BF1B48806940F008001949886108468E
:10564000806900F00800009000BF00BF00BF08465E
:10565000806940F0400088610846806900F04000A1
:10566000009000BF00BF2020019001200290039015
:105670000320049001A90B48FBF718FE202001909D
:1056800001A90948FBF712FE012220210548FBF77A
:10569000B5FF012220210448FBF7B0FF05B000BD93
:1056A00000100240000C01400018014000B587B016
:1056B000022001908003039001A8FCF7EFF80C484A
:1056C0000C4908600020486000210A48816001738D
:1056D000012101610021017581614FF46021C161E7
:1056E000FBF7E2FA0348FBF7A9F907B000BD000099
:1056F00000240140A002002000BFFEE77047704771
:1057000008B508490968C9084FF47A72B1FBF2F18B
:105710004143009100BF00BF00994A1E009200293A
:10572000F9D108BD00000020704730B58FB00546A4
:10573000002401200590000406900020079002201C
:105740000C90C1030D910E9505A8FCF773FA044661
:105750000CB100BFFEE70F20009002200190002056
:1057600002904FF48060039000200490022168466C
:10577000FCF72AF904460CB100BFFEE70FB030BDBC
:1057800010B5FBF747FF10BD1148006840F001005D
:105790000F490860084640680E4908400C494860B7
:1057A000084600680C490840094908600846006836
:1057B00020F4802008600846406820F4FE0048601D
:1057C0004FF41F008860C803044908607047000058
:1057D000001002400000FFF8FFFFF6FE08ED00E0B9
:1057E00010B50E480068C06800F0010078B10C499F
:1057F00008698047002009490968486200BF6420A1
:1058000006490968C86264210448C16000BF6FF09E
:10581000010002490968086110BD00006002002013
:105820005800002010B50268204B98420ED0204B43
:1058300098420BD0B0F1804F08D01E4B984205D053
:105840001D4B984202D01D4B984203D122F07002AA
:105850004B681A43154B98420ED0154B98420BD00B
:10586000B0F1804F08D0134B984205D0124B9842AC
:1058700002D0124B984203D122F44072CB681A43F3
:1058800022F080034C6943EA040202608B68C36221
:105890000B688362054B984202D0054B984201D1B8
:1058A0000B6903630123436110BD0000002C01401C
:1058B000003401400004004000080040000C00409B
:1058C00038B504460D4600BF1148C06940F00400D9
:1058D0000F49C8610846C06900F00400009000BF8D
:1058E00000BF032211461E20FBF7EBFE1E20FBF734
:1058F000D8FE0848084908600846456000218160D4
:10590000C4600161FCF784FC0348FCF79CFC38BDD3
:1059100000100240000800406002002070B50546FB
:105920006C6A0020E085E0842046FCF7A1FC70BD95
:105930000168C96821F490710268D1600168496901
:1059400021F0010102685161202180F83A1070476E
:1059500010B504462068C06820F040002168C86087
:10596000202084F839002046FCF73EFE002010BDC0
:1059700070B5044694F83A0022284AD1A068B0F5E0
:10598000805F13D1A56A206940B920684068C0F3E0
:1059900008002880A06A801CA06219E02068406886
:1059A000C0B22880A06A401CA06211E0206938B90A
:1059B00020684068C1B2A26A501CA062117007E062
:1059C0002068406800F07F01A26A501CA06211703C
:1059D000E08D401E80B2E085C8B92068C06820F024
:1059E00020002168C8602068C06820F480702168A9
:1059F000C8602068406920F00100216848612020CB
:105A000084F83A002046FCF7ABFD002070BD002072
:105A1000FCE70220FAE7000070B504462168096936
:105A200021F44051E2681143226811612269A168A2
:105A30001143626941EA02052168C96841F20C62BA
:105A4000914329432268D1602168496921F440715A
:105A5000A269114322685161564A2168914254D18A
:105A6000FCF78EF800EBC00101EB001162689200B8
:105A7000B1FBF2F100EBC00202EB001263689B0085
:105A8000B2FBF3F26423B2FBF3F202EBC20303EBCB
:105A90000212A1EB8201322202EB01116422B1FB5E
:105AA000F2F101F0F00100EBC00202EB00126368BA
:105AB0009B00B2FBF3F26423B2FBF3F201EB0212A0
:105AC00000EBC00101EB001163689B00B1FBF3F137
:105AD00000EBC00303EB00136668B600B3FBF6F3FC
